{
  "_format": "hh-sol-artifact-1",
  "contractName": "MultiSigWallet",
  "sourceName": "contracts/MultiSigWallet.sol",
  "abi": [
    {
      "inputs": [
        {
          "internalType": "address[]",
          "name": "_owners",
          "type": "address[]"
        },
        {
          "internalType": "uint256",
          "name": "_numConfirmationsRequired",
          "type": "uint256"
        }
      ],
      "stateMutability": "nonpayable",
      "type": "constructor"
    },
    {
      "anonymous": false,
      "inputs": [
        {
          "indexed": true,
          "internalType": "address",
          "name": "owner",
          "type": "address"
        },
        {
          "indexed": true,
          "internalType": "uint256",
          "name": "txIndex",
          "type": "uint256"
        }
      ],
      "name": "ConfirmTransaction",
      "type": "event"
    },
    {
      "anonymous": false,
      "inputs": [
        {
          "indexed": true,
          "internalType": "address",
          "name": "sender",
          "type": "address"
        },
        {
          "indexed": false,
          "internalType": "uint256",
          "name": "amount",
          "type": "uint256"
        },
        {
          "indexed": false,
          "internalType": "uint256",
          "name": "balance",
          "type": "uint256"
        }
      ],
      "name": "Deposit",
      "type": "event"
    },
    {
      "anonymous": false,
      "inputs": [
        {
          "indexed": true,
          "internalType": "address",
          "name": "owner",
          "type": "address"
        },
        {
          "indexed": true,
          "internalType": "uint256",
          "name": "txIndex",
          "type": "uint256"
        }
      ],
      "name": "ExecuteTransaction",
      "type": "event"
    },
    {
      "anonymous": false,
      "inputs": [
        {
          "indexed": true,
          "internalType": "address",
          "name": "owner",
          "type": "address"
        },
        {
          "indexed": true,
          "internalType": "uint256",
          "name": "txIndex",
          "type": "uint256"
        }
      ],
      "name": "RevokeConfirmation",
      "type": "event"
    },
    {
      "anonymous": false,
      "inputs": [
        {
          "indexed": true,
          "internalType": "address",
          "name": "owner",
          "type": "address"
        },
        {
          "indexed": true,
          "internalType": "uint256",
          "name": "txIndex",
          "type": "uint256"
        },
        {
          "indexed": true,
          "internalType": "address",
          "name": "to",
          "type": "address"
        },
        {
          "indexed": false,
          "internalType": "uint256",
          "name": "value",
          "type": "uint256"
        },
        {
          "indexed": false,
          "internalType": "bytes",
          "name": "data",
          "type": "bytes"
        }
      ],
      "name": "SubmitTransaction",
      "type": "event"
    },
    {
      "inputs": [
        {
          "internalType": "uint256",
          "name": "_txIndex",
          "type": "uint256"
        }
      ],
      "name": "confirmTransaction",
      "outputs": [],
      "stateMutability": "nonpayable",
      "type": "function"
    },
    {
      "inputs": [
        {
          "internalType": "uint256",
          "name": "_txIndex",
          "type": "uint256"
        }
      ],
      "name": "executeTransaction",
      "outputs": [],
      "stateMutability": "nonpayable",
      "type": "function"
    },
    {
      "inputs": [],
      "name": "getOwners",
      "outputs": [
        {
          "internalType": "address[]",
          "name": "",
          "type": "address[]"
        }
      ],
      "stateMutability": "view",
      "type": "function"
    },
    {
      "inputs": [],
      "name": "getTransactionCount",
      "outputs": [
        {
          "internalType": "uint256",
          "name": "",
          "type": "uint256"
        }
      ],
      "stateMutability": "view",
      "type": "function"
    },
    {
      "inputs": [],
      "name": "getTransactions",
      "outputs": [
        {
          "components": [
            {
              "internalType": "address",
              "name": "to",
              "type": "address"
            },
            {
              "internalType": "uint256",
              "name": "value",
              "type": "uint256"
            },
            {
              "internalType": "bytes",
              "name": "data",
              "type": "bytes"
            },
            {
              "internalType": "bool",
              "name": "executed",
              "type": "bool"
            },
            {
              "internalType": "uint256",
              "name": "numConfirmations",
              "type": "uint256"
            }
          ],
          "internalType": "struct MultiSigWallet.Transaction[]",
          "name": "",
          "type": "tuple[]"
        }
      ],
      "stateMutability": "view",
      "type": "function"
    },
    {
      "inputs": [
        {
          "internalType": "uint256",
          "name": "",
          "type": "uint256"
        },
        {
          "internalType": "address",
          "name": "",
          "type": "address"
        }
      ],
      "name": "isConfirmed",
      "outputs": [
        {
          "internalType": "bool",
          "name": "",
          "type": "bool"
        }
      ],
      "stateMutability": "view",
      "type": "function"
    },
    {
      "inputs": [
        {
          "internalType": "address",
          "name": "",
          "type": "address"
        }
      ],
      "name": "isOwner",
      "outputs": [
        {
          "internalType": "bool",
          "name": "",
          "type": "bool"
        }
      ],
      "stateMutability": "view",
      "type": "function"
    },
    {
      "inputs": [],
      "name": "numConfirmationsRequired",
      "outputs": [
        {
          "internalType": "uint256",
          "name": "",
          "type": "uint256"
        }
      ],
      "stateMutability": "view",
      "type": "function"
    },
    {
      "inputs": [
        {
          "internalType": "uint256",
          "name": "",
          "type": "uint256"
        }
      ],
      "name": "owners",
      "outputs": [
        {
          "internalType": "address",
          "name": "",
          "type": "address"
        }
      ],
      "stateMutability": "view",
      "type": "function"
    },
    {
      "inputs": [
        {
          "internalType": "uint256",
          "name": "_txIndex",
          "type": "uint256"
        }
      ],
      "name": "revokeConfirmation",
      "outputs": [],
      "stateMutability": "nonpayable",
      "type": "function"
    },
    {
      "inputs": [
        {
          "internalType": "address",
          "name": "_to",
          "type": "address"
        },
        {
          "internalType": "uint256",
          "name": "_value",
          "type": "uint256"
        },
        {
          "internalType": "bytes",
          "name": "_data",
          "type": "bytes"
        }
      ],
      "name": "submitTransaction",
      "outputs": [],
      "stateMutability": "nonpayable",
      "type": "function"
    },
    {
      "inputs": [
        {
          "internalType": "uint256",
          "name": "",
          "type": "uint256"
        }
      ],
      "name": "transactions",
      "outputs": [
        {
          "internalType": "address",
          "name": "to",
          "type": "address"
        },
        {
          "internalType": "uint256",
          "name": "value",
          "type": "uint256"
        },
        {
          "internalType": "bytes",
          "name": "data",
          "type": "bytes"
        },
        {
          "internalType": "bool",
          "name": "executed",
          "type": "bool"
        },
        {
          "internalType": "uint256",
          "name": "numConfirmations",
          "type": "uint256"
        }
      ],
      "stateMutability": "view",
      "type": "function"
    },
    {
      "stateMutability": "payable",
      "type": "receive"
    }
  ],
  "bytecode": "0x60806040523480156200001157600080fd5b5060405162002679380380620026798339818101604052810190620000379190620003d9565b60008251116200007e576040517f08c379a0000000000000000000000000000000000000000000000000000000008152600401620000759062000583565b60405180910390fd5b60008111801562000090575081518111155b620000d2576040517f08c379a0000000000000000000000000000000000000000000000000000000008152600401620000c990620005c7565b60405180910390fd5b60005b8251811015620002f95760008382815181106200011b577f4e487b7100000000000000000000000000000000000000000000000000000000600052603260045260246000fd5b60200260200101519050600073ffffffffffffffffffffffffffffffffffffffff168173ffffffffffffffffffffffffffffffffffffffff16141562000198576040517f08c379a00000000000000000000000000000000000000000000000000000000081526004016200018f90620005a5565b60405180910390fd5b600160008273ffffffffffffffffffffffffffffffffffffffff1673ffffffffffffffffffffffffffffffffffffffff16815260200190815260200160002060009054906101000a900460ff161562000228576040517f08c379a00000000000000000000000000000000000000000000000000000000081526004016200021f9062000561565b60405180910390fd5b60018060008373ffffffffffffffffffffffffffffffffffffffff1673ffffffffffffffffffffffffffffffffffffffff16815260200190815260200160002060006101000a81548160ff0219169083151502179055506000819080600181540180825580915050600190039060005260206000200160009091909190916101000a81548173ffffffffffffffffffffffffffffffffffffffff021916908373ffffffffffffffffffffffffffffffffffffffff160217905550508080620002f0906200069b565b915050620000d5565b508060028190555050506200077b565b6000620003206200031a846200061d565b620005e9565b905080838252602082019050828560208602820111156200034057600080fd5b60005b858110156200037457816200035988826200037e565b84526020840193506020830192505060018101905062000343565b5050509392505050565b6000815190506200038f8162000747565b92915050565b600082601f830112620003a757600080fd5b8151620003b984826020860162000309565b91505092915050565b600081519050620003d38162000761565b92915050565b60008060408385031215620003ed57600080fd5b600083015167ffffffffffffffff8111156200040857600080fd5b620004168582860162000395565b92505060206200042985828601620003c2565b9150509250929050565b6000620004426010836200064c565b91507f6f776e6572206e6f7420756e69717565000000000000000000000000000000006000830152602082019050919050565b600062000484600f836200064c565b91507f6f776e65727320726571756972656400000000000000000000000000000000006000830152602082019050919050565b6000620004c6600d836200064c565b91507f696e76616c6964206f776e6572000000000000000000000000000000000000006000830152602082019050919050565b6000620005086028836200064c565b91507f696e76616c6964206e756d626572206f6620726571756972656420636f6e666960008301527f726d6174696f6e730000000000000000000000000000000000000000000000006020830152604082019050919050565b600060208201905081810360008301526200057c8162000433565b9050919050565b600060208201905081810360008301526200059e8162000475565b9050919050565b60006020820190508181036000830152620005c081620004b7565b9050919050565b60006020820190508181036000830152620005e281620004f9565b9050919050565b6000604051905081810181811067ffffffffffffffff8211171562000613576200061262000718565b5b8060405250919050565b600067ffffffffffffffff8211156200063b576200063a62000718565b5b602082029050602081019050919050565b600082825260208201905092915050565b60006200066a8262000671565b9050919050565b600073ffffffffffffffffffffffffffffffffffffffff82169050919050565b6000819050919050565b6000620006a88262000691565b91507fffffffffffffffffffffffffffffffffffffffffffffffffffffffffffffffff821415620006de57620006dd620006e9565b5b600182019050919050565b7f4e487b7100000000000000000000000000000000000000000000000000000000600052601160045260246000fd5b7f4e487b7100000000000000000000000000000000000000000000000000000000600052604160045260246000fd5b62000752816200065d565b81146200075e57600080fd5b50565b6200076c8162000691565b81146200077857600080fd5b50565b611eee806200078b6000396000f3fe6080604052600436106100ab5760003560e01c80639ace38c2116100645780639ace38c21461023d578063a0e67e2b1461027e578063c01a8c84146102a9578063c6427474146102d2578063d0549b85146102fb578063ee22610b1461032657610102565b8063025e7c271461010757806320ea8d86146101445780632e7700f01461016d5780632f54bf6e1461019857806380f59a65146101d557806383920e901461021257610102565b36610102573373ffffffffffffffffffffffffffffffffffffffff167f90890809c654f11d6e72a28fa60149770a0d11ec6c92319d6ceb2bb0a4ea1a1534476040516100f8929190611b4c565b60405180910390a2005b600080fd5b34801561011357600080fd5b5061012e60048036038101906101299190611451565b61034f565b60405161013b919061194d565b60405180910390f35b34801561015057600080fd5b5061016b60048036038101906101669190611451565b61038e565b005b34801561017957600080fd5b506101826106b4565b60405161018f9190611b01565b60405180910390f35b3480156101a457600080fd5b506101bf60048036038101906101ba91906113c1565b6106c1565b6040516101cc9190611a06565b60405180910390f35b3480156101e157600080fd5b506101fc60048036038101906101f7919061147a565b6106e1565b6040516102099190611a06565b60405180910390f35b34801561021e57600080fd5b50610227610710565b60405161023491906119e4565b60405180910390f35b34801561024957600080fd5b50610264600480360381019061025f9190611451565b610886565b604051610275959493929190611968565b60405180910390f35b34801561028a57600080fd5b50610293610981565b6040516102a091906119c2565b60405180910390f35b3480156102b557600080fd5b506102d060048036038101906102cb9190611451565b610a0f565b005b3480156102de57600080fd5b506102f960048036038101906102f491906113ea565b610d38565b005b34801561030757600080fd5b50610310610f42565b60405161031d9190611b01565b60405180910390f35b34801561033257600080fd5b5061034d60048036038101906103489190611451565b610f48565b005b6000818154811061035f57600080fd5b906000526020600020016000915054906101000a900473ffffffffffffffffffffffffffffffffffffffff1681565b600160003373ffffffffffffffffffffffffffffffffffffffff1673ffffffffffffffffffffffffffffffffffffffff16815260200190815260200160002060009054906101000a900460ff1661041a576040517f08c379a000000000000000000000000000000000000000000000000000000000815260040161041190611ae1565b60405180910390fd5b806004805490508110610462576040517f08c379a000000000000000000000000000000000000000000000000000000000815260040161045990611a41565b60405180910390fd5b816004818154811061049d577f4e487b7100000000000000000000000000000000000000000000000000000000600052603260045260246000fd5b906000526020600020906005020160030160009054906101000a900460ff16156104fc576040517f08c379a00000000000000000000000000000000000000000000000000000000081526004016104f390611a81565b60405180910390fd5b600060048481548110610538577f4e487b7100000000000000000000000000000000000000000000000000000000600052603260045260246000fd5b906000526020600020906005020190506003600085815260200190815260200160002060003373ffffffffffffffffffffffffffffffffffffffff1673ffffffffffffffffffffffffffffffffffffffff16815260200190815260200160002060009054906101000a900460ff166105e5576040517f08c379a00000000000000000000000000000000000000000000000000000000081526004016105dc90611aa1565b60405180910390fd5b60018160040160008282546105fa9190611cfc565b9250508190555060006003600086815260200190815260200160002060003373ffffffffffffffffffffffffffffffffffffffff1673ffffffffffffffffffffffffffffffffffffffff16815260200190815260200160002060006101000a81548160ff021916908315150217905550833373ffffffffffffffffffffffffffffffffffffffff167ff0dca620e2e81f7841d07bcc105e1704fb01475b278a9d4c236e1c62945edd5560405160405180910390a350505050565b6000600480549050905090565b60016020528060005260406000206000915054906101000a900460ff1681565b60036020528160005260406000206020528060005260406000206000915091509054906101000a900460ff1681565b60606004805480602002602001604051908101604052809291908181526020016000905b8282101561087d57838290600052602060002090600502016040518060a00160405290816000820160009054906101000a900473ffffffffffffffffffffffffffffffffffffffff1673ffffffffffffffffffffffffffffffffffffffff1673ffffffffffffffffffffffffffffffffffffffff168152602001600182015481526020016002820180546107c790611dba565b80601f01602080910402602001604051908101604052809291908181526020018280546107f390611dba565b80156108405780601f1061081557610100808354040283529160200191610840565b820191906000526020600020905b81548152906001019060200180831161082357829003601f168201915b505050505081526020016003820160009054906101000a900460ff1615151515815260200160048201548152505081526020019060010190610734565b50505050905090565b6004818154811061089657600080fd5b90600052602060002090600502016000915090508060000160009054906101000a900473ffffffffffffffffffffffffffffffffffffffff16908060010154908060020180546108e590611dba565b80601f016020809104026020016040519081016040528092919081815260200182805461091190611dba565b801561095e5780601f106109335761010080835404028352916020019161095e565b820191906000526020600020905b81548152906001019060200180831161094157829003601f168201915b5050505050908060030160009054906101000a900460ff16908060040154905085565b60606000805480602002602001604051908101604052809291908181526020018280548015610a0557602002820191906000526020600020905b8160009054906101000a900473ffffffffffffffffffffffffffffffffffffffff1673ffffffffffffffffffffffffffffffffffffffff16815260200190600101908083116109bb575b5050505050905090565b600160003373ffffffffffffffffffffffffffffffffffffffff1673ffffffffffffffffffffffffffffffffffffffff16815260200190815260200160002060009054906101000a900460ff16610a9b576040517f08c379a0000000000000000000000000000000000000000000000000000000008152600401610a9290611ae1565b60405180910390fd5b806004805490508110610ae3576040517f08c379a0000000000000000000000000000000000000000000000000000000008152600401610ada90611a41565b60405180910390fd5b8160048181548110610b1e577f4e487b7100000000000000000000000000000000000000000000000000000000600052603260045260246000fd5b906000526020600020906005020160030160009054906101000a900460ff1615610b7d576040517f08c379a0000000000000000000000000000000000000000000000000000000008152600401610b7490611a81565b60405180910390fd5b826003600082815260200190815260200160002060003373ffffffffffffffffffffffffffffffffffffffff1673ffffffffffffffffffffffffffffffffffffffff16815260200190815260200160002060009054906101000a900460ff1615610c1c576040517f08c379a0000000000000000000000000000000000000000000000000000000008152600401610c1390611a61565b60405180910390fd5b600060048581548110610c58577f4e487b7100000000000000000000000000000000000000000000000000000000600052603260045260246000fd5b906000526020600020906005020190506001816004016000828254610c7d9190611ca6565b9250508190555060016003600087815260200190815260200160002060003373ffffffffffffffffffffffffffffffffffffffff1673ffffffffffffffffffffffffffffffffffffffff16815260200190815260200160002060006101000a81548160ff021916908315150217905550843373ffffffffffffffffffffffffffffffffffffffff167f5cbe105e36805f7820e291f799d5794ff948af2a5f664e580382defb6339004160405160405180910390a35050505050565b600160003373ffffffffffffffffffffffffffffffffffffffff1673ffffffffffffffffffffffffffffffffffffffff16815260200190815260200160002060009054906101000a900460ff16610dc4576040517f08c379a0000000000000000000000000000000000000000000000000000000008152600401610dbb90611ae1565b60405180910390fd5b6000600480549050905060046040518060a001604052808673ffffffffffffffffffffffffffffffffffffffff1681526020018581526020018481526020016000151581526020016000815250908060018154018082558091505060019003906000526020600020906005020160009091909190915060008201518160000160006101000a81548173ffffffffffffffffffffffffffffffffffffffff021916908373ffffffffffffffffffffffffffffffffffffffff160217905550602082015181600101556040820151816002019080519060200190610ea792919061128c565b5060608201518160030160006101000a81548160ff0219169083151502179055506080820151816004015550508373ffffffffffffffffffffffffffffffffffffffff16813373ffffffffffffffffffffffffffffffffffffffff167fd5a05bf70715ad82a09a756320284a1b54c9ff74cd0f8cce6219e79b563fe59d8686604051610f34929190611b1c565b60405180910390a450505050565b60025481565b600160003373ffffffffffffffffffffffffffffffffffffffff1673ffffffffffffffffffffffffffffffffffffffff16815260200190815260200160002060009054906101000a900460ff16610fd4576040517f08c379a0000000000000000000000000000000000000000000000000000000008152600401610fcb90611ae1565b60405180910390fd5b80600480549050811061101c576040517f08c379a000000000000000000000000000000000000000000000000000000000815260040161101390611a41565b60405180910390fd5b8160048181548110611057577f4e487b7100000000000000000000000000000000000000000000000000000000600052603260045260246000fd5b906000526020600020906005020160030160009054906101000a900460ff16156110b6576040517f08c379a00000000000000000000000000000000000000000000000000000000081526004016110ad90611a81565b60405180910390fd5b6000600484815481106110f2577f4e487b7100000000000000000000000000000000000000000000000000000000600052603260045260246000fd5b906000526020600020906005020190506002548160040154101561114b576040517f08c379a000000000000000000000000000000000000000000000000000000000815260040161114290611ac1565b60405180910390fd5b60018160030160006101000a81548160ff02191690831515021790555060008160000160009054906101000a900473ffffffffffffffffffffffffffffffffffffffff1673ffffffffffffffffffffffffffffffffffffffff168260010154836002016040516111bb9190611936565b60006040518083038185875af1925050503d80600081146111f8576040519150601f19603f3d011682016040523d82523d6000602084013e6111fd565b606091505b5050905080611241576040517f08c379a000000000000000000000000000000000000000000000000000000000815260040161123890611a21565b60405180910390fd5b843373ffffffffffffffffffffffffffffffffffffffff167f5445f318f4f5fcfb66592e68e0cc5822aa15664039bd5f0ffde24c5a8142b1ac60405160405180910390a35050505050565b82805461129890611dba565b90600052602060002090601f0160209004810192826112ba5760008555611301565b82601f106112d357805160ff1916838001178555611301565b82800160010185558215611301579182015b828111156113005782518255916020019190600101906112e5565b5b50905061130e9190611312565b5090565b5b8082111561132b576000816000905550600101611313565b5090565b600061134261133d84611ba6565b611b75565b90508281526020810184848401111561135a57600080fd5b611365848285611d78565b509392505050565b60008135905061137c81611e8a565b92915050565b600082601f83011261139357600080fd5b81356113a384826020860161132f565b91505092915050565b6000813590506113bb81611ea1565b92915050565b6000602082840312156113d357600080fd5b60006113e18482850161136d565b91505092915050565b6000806000606084860312156113ff57600080fd5b600061140d8682870161136d565b935050602061141e868287016113ac565b925050604084013567ffffffffffffffff81111561143b57600080fd5b61144786828701611382565b9150509250925092565b60006020828403121561146357600080fd5b6000611471848285016113ac565b91505092915050565b6000806040838503121561148d57600080fd5b600061149b858286016113ac565b92505060206114ac8582860161136d565b9150509250929050565b60006114c283836114e2565b60208301905092915050565b60006114da83836118a2565b905092915050565b6114eb81611d30565b82525050565b6114fa81611d30565b82525050565b600061150b82611c0b565b6115158185611c46565b935061152083611bd6565b8060005b8381101561155157815161153888826114b6565b975061154383611c2c565b925050600181019050611524565b5085935050505092915050565b600061156982611c16565b6115738185611c57565b93508360208202850161158585611be6565b8060005b858110156115c157848403895281516115a285826114ce565b94506115ad83611c39565b925060208a01995050600181019050611589565b50829750879550505050505092915050565b6115dc81611d42565b82525050565b6115eb81611d42565b82525050565b60006115fc82611c21565b6116068185611c68565b9350611616818560208601611d87565b61161f81611e79565b840191505092915050565b600061163582611c21565b61163f8185611c79565b935061164f818560208601611d87565b61165881611e79565b840191505092915050565b6000815461167081611dba565b61167a8186611c8a565b9450600182166000811461169557600181146116a6576116d9565b60ff198316865281860193506116d9565b6116af85611bf6565b60005b838110156116d1578154818901526001820191506020810190506116b2565b838801955050505b50505092915050565b60006116ef600983611c95565b91507f7478206661696c656400000000000000000000000000000000000000000000006000830152602082019050919050565b600061172f601183611c95565b91507f747820646f6573206e6f742065786973740000000000000000000000000000006000830152602082019050919050565b600061176f601483611c95565b91507f747820616c726561647920636f6e6669726d65640000000000000000000000006000830152602082019050919050565b60006117af601383611c95565b91507f747820616c7265616479206578656375746564000000000000000000000000006000830152602082019050919050565b60006117ef601083611c95565b91507f7478206e6f7420636f6e6669726d6564000000000000000000000000000000006000830152602082019050919050565b600061182f601183611c95565b91507f63616e6e6f7420657865637574652074780000000000000000000000000000006000830152602082019050919050565b600061186f600983611c95565b91507f6e6f74206f776e657200000000000000000000000000000000000000000000006000830152602082019050919050565b600060a0830160008301516118ba60008601826114e2565b5060208301516118cd6020860182611918565b50604083015184820360408601526118e582826115f1565b91505060608301516118fa60608601826115d3565b50608083015161190d6080860182611918565b508091505092915050565b61192181611d6e565b82525050565b61193081611d6e565b82525050565b60006119428284611663565b915081905092915050565b600060208201905061196260008301846114f1565b92915050565b600060a08201905061197d60008301886114f1565b61198a6020830187611927565b818103604083015261199c818661162a565b90506119ab60608301856115e2565b6119b86080830184611927565b9695505050505050565b600060208201905081810360008301526119dc8184611500565b905092915050565b600060208201905081810360008301526119fe818461155e565b905092915050565b6000602082019050611a1b60008301846115e2565b92915050565b60006020820190508181036000830152611a3a816116e2565b9050919050565b60006020820190508181036000830152611a5a81611722565b9050919050565b60006020820190508181036000830152611a7a81611762565b9050919050565b60006020820190508181036000830152611a9a816117a2565b9050919050565b60006020820190508181036000830152611aba816117e2565b9050919050565b60006020820190508181036000830152611ada81611822565b9050919050565b60006020820190508181036000830152611afa81611862565b9050919050565b6000602082019050611b166000830184611927565b92915050565b6000604082019050611b316000830185611927565b8181036020830152611b43818461162a565b90509392505050565b6000604082019050611b616000830185611927565b611b6e6020830184611927565b9392505050565b6000604051905081810181811067ffffffffffffffff82111715611b9c57611b9b611e4a565b5b8060405250919050565b600067ffffffffffffffff821115611bc157611bc0611e4a565b5b601f19601f8301169050602081019050919050565b6000819050602082019050919050565b6000819050602082019050919050565b60008190508160005260206000209050919050565b600081519050919050565b600081519050919050565b600081519050919050565b6000602082019050919050565b6000602082019050919050565b600082825260208201905092915050565b600082825260208201905092915050565b600082825260208201905092915050565b600082825260208201905092915050565b600081905092915050565b600082825260208201905092915050565b6000611cb182611d6e565b9150611cbc83611d6e565b9250827fffffffffffffffffffffffffffffffffffffffffffffffffffffffffffffffff03821115611cf157611cf0611dec565b5b828201905092915050565b6000611d0782611d6e565b9150611d1283611d6e565b925082821015611d2557611d24611dec565b5b828203905092915050565b6000611d3b82611d4e565b9050919050565b60008115159050919050565b600073ffffffffffffffffffffffffffffffffffffffff82169050919050565b6000819050919050565b82818337600083830152505050565b60005b83811015611da5578082015181840152602081019050611d8a565b83811115611db4576000848401525b50505050565b60006002820490506001821680611dd257607f821691505b60208210811415611de657611de5611e1b565b5b50919050565b7f4e487b7100000000000000000000000000000000000000000000000000000000600052601160045260246000fd5b7f4e487b7100000000000000000000000000000000000000000000000000000000600052602260045260246000fd5b7f4e487b7100000000000000000000000000000000000000000000000000000000600052604160045260246000fd5b6000601f19601f8301169050919050565b611e9381611d30565b8114611e9e57600080fd5b50565b611eaa81611d6e565b8114611eb557600080fd5b5056fea264697066735822122074fff9db9d7367882b1316e74f04836570dae393745887fd897c81edf80b7fb864736f6c63430008000033",
  "linkReferences": {},
  "deployedLinkReferences": {}
}